:020000040000FA
:1000000008020010E1000000E9000000EB00000021
:10001000ED000000EF000000F10000000000000013
:10002000000000000000000000000000F3000000DD
:10003000F500000000000000F7000000F9000000DB
:10004000FB000000FB000000FB000000FB000000C4
:10005000FB000000FB000000FB000000FB000000B4
:10006000FB000000FB000000FB000000FB000000A4
:10007000FB000000FB000000FB000000FB00000094
:10008000FB000000FB000000FB000000FB00000084
:10009000FB000000FB000000FB000000FB00000074
:1000A000FB000000FB000000FB000000FB00000064
:1000B000FB000000FB000000FB000000FB00000054
:1000C000FB000000FB000000FB000000DFF80CD08C
:1000D00000F0FAF800480047010300000802001091
:1000E0000648804706480047FEE7FEE7FEE7FEE7D2
:1000F000FEE7FEE7FEE7FEE7FEE7FEE78D04000011
:10010000CD000000014631B1012906D0022906D0F8
:10011000032908D105E0644870476448FCE7644857
:10012000FAE76448F8E76048F6E72DE9F04106464B
:100130000D463046FFF7E6FF044636B1012E0CD0DF
:10014000022E12D0032E20D117E05B48006840F049
:1001500008005A49C1F8C40019E05748006840F047
:1001600010005649C1F8C40011E05348006840F03F
:1001700080705249C1F8C40009E04F48006840F05F
:1001800000704E49C1F8C40001E0BDE8F08100BF35
:10019000012E05D14A48006940F00A00484908612B
:1001A000484800684FEA900828680001B8FBF0F75B
:1001B00083202073380A20712770207B20F0800074
:1001C00020732879401F6979491E40EA8100207315
:1001D000A8794F2804D1207B40F01800207306E056
:1001E000A879452803D1207B40F008002073072020
:1001F000207200BFC9E770B506460C463046FFF7CF
:1002000081FF054600BF287D10F0200FFBD02C7029
:1002100070BD70B505460C4604E014F8011B284675
:10022000FFF7E9FF20780028F7D170BD70B50546CB
:100230002846FFF767FF044600BF207D10F0010F3E
:10024000FBD0207870BD2DE9F04180460D46174661
:1002500000260CE04046FFF7E9FF04460A2C01D0D7
:100260000D2C00D106E03046711C8EB22C54781E45
:10027000B042EFDC00BF0020A855BDE8F08170B5AA
:1002800004462046FFF73EFF0546287DC0F3401098
:1002900070BD70B504462046FFF734FF0546287D43
:1002A00000F0010070BD000000C0004000000140EF
:1002B0000080094000C00940C4C00F4000C00F408A
:1002C00000C0024000000010064C074D06E0E06848
:1002D00040F0010394E8070098471034AC42F6D38D
:1002E000FFF7F8FE1C0600003C06000002E008C80C
:1002F000121F08C1002AFAD170477047FFFFFFFFA5
:100300001CB50F4903C9CDE9000169460120FFF77B
:100310000CFF14E00BA10120FFF77BFF002400E09D
:10032000641C282CFCDB0120FFF7B3FF38B101204F
:10033000FFF77CFF054629460120FFF75CFFE9E750
:100340001406000048656C6C6F2055617274210AB8
:100350000000000097480068C0F30160032864D1E2
:100360009548006810F0030006D0012823D0022829
:100370003FD0032858D100E000BF8E480068C0F38A
:100380000E0000F101004FEA40008C4900FB01F033
:100390008B49D1F88810C1F3074101F10101B0FB8D
:1003A000F1F188480068C0B200F10100B1FBF0F043
:1003B0008549086038E07F480068C0F30E0000F10E
:1003C00001004FEA4000814900FB01F07C49D1F86F
:1003D0008810C1F3074101F10101B0FBF1F1794847
:1003E0000068C0B200F10100B1FBF0F0764908608E
:1003F0001AE070480068C0F30E0000F101004FEAF7
:1004000000416F48D0F88800C0F3074000F10100B8
:10041000B1FBF0F16B480068C0B200F10100B1FB24
:10042000F0F06949086000BF2FE06348006810F0F1
:10043000030006D0012810D0022819D0032823D1A8
:1004400000E000BF5F480068C0B200F101005B49F6
:10045000B1FBF0F05C49086016E05A480068C0B291
:1004600000F101005949B1FBF0F0574908600BE079
:1004700054480068C0B200F101004FF40041B1FBE4
:10048000F0F05149086000BF00BF70474FF0407066
:10049000011420224E4B1A60494AD2F8A02112F0D2
:1004A000200F05D000BF4A4A126812F0400FFAD060
:1004B0000322444B1A604FF00002414BC3F8A821BD
:1004C000444B1A604FF001023B4B1A60424A434BC7
:1004D0001A604FF0AA02424B1A604FF055021A60A0
:1004E0004FF001023F4B1A604FF0AA023C4B1A60DA
:1004F0004FF05502324BC3F88C2000BF2D4A1268D2
:1005000012F0806FFAD00322364B1A604FF0AA0225
:100510002B4BC3F88C204FF05502314B1A6000BFB3
:10052000244A126802F04072B2F1407FF8D12322CF
:100530002D4B1A604FF0AA02214BC3F8AC204FF0AC
:1005400055022A4B1A604FF00102294B1A604FF0F6
:10055000AA02264B1A604FF05502194BC3F8AC2083
:1005600000BF244A126812F4806FFAD00322204B95
:100570001A604FF0AA02124BC3F8AC204FF055029C
:100580001A4B1A6000BF1B4A126802F44072B2F59F
:10059000407FF8D1184A194B1A604FF00002084BFF
:1005A000C3F8C82143F23A021A604FF00002144B1C
:1005B0001A60704788C00F400CC10F4000093D0011
:1005C00000C00F4004C10F4000000010001BB70026
:1005D000A0C10F40ACC10F406300050084C00F40B4
:1005E0008CC00F4080C00F40A4C00F40ACC00F4073
:1005F000A0C00F40A8C00F40DE872804C4C00F4031
:1006000008ED00E0002001E001C1121F002AFBD12B
:10061000704700008025000008014E003C060000E5
:100620000000001004000000EC0200004006000082
:1006300004000010040200000406000000E1F505BB
:04000005000000E116
:00000001FF
